{
  "contractName": "DappState",
  "abi": [
    {
      "inputs": [],
      "payable": false,
      "stateMutability": "nonpayable",
      "type": "constructor"
    },
    {
      "anonymous": false,
      "inputs": [
        {
          "indexed": true,
          "internalType": "bytes32",
          "name": "docId",
          "type": "bytes32"
        },
        {
          "indexed": true,
          "internalType": "address",
          "name": "owner",
          "type": "address"
        },
        {
          "indexed": false,
          "internalType": "uint256",
          "name": "timestamp",
          "type": "uint256"
        }
      ],
      "name": "AddIpfsDocument",
      "type": "event"
    },
    {
      "constant": true,
      "inputs": [
        {
          "internalType": "address",
          "name": "",
          "type": "address"
        },
        {
          "internalType": "uint256",
          "name": "",
          "type": "uint256"
        }
      ],
      "name": "ipfsDocsByOwner",
      "outputs": [
        {
          "internalType": "bytes32",
          "name": "",
          "type": "bytes32"
        }
      ],
      "payable": false,
      "stateMutability": "view",
      "type": "function"
    },
    {
      "constant": true,
      "inputs": [
        {
          "internalType": "uint256",
          "name": "",
          "type": "uint256"
        },
        {
          "internalType": "uint256",
          "name": "",
          "type": "uint256"
        }
      ],
      "name": "ipfsDocsByPage",
      "outputs": [
        {
          "internalType": "bytes32",
          "name": "",
          "type": "bytes32"
        }
      ],
      "payable": false,
      "stateMutability": "view",
      "type": "function"
    },
    {
      "constant": true,
      "inputs": [],
      "name": "ipfsLastPage",
      "outputs": [
        {
          "internalType": "uint256",
          "name": "",
          "type": "uint256"
        }
      ],
      "payable": false,
      "stateMutability": "view",
      "type": "function"
    },
    {
      "constant": true,
      "inputs": [],
      "name": "isContractRunStateActive",
      "outputs": [
        {
          "internalType": "bool",
          "name": "",
          "type": "bool"
        }
      ],
      "payable": false,
      "stateMutability": "view",
      "type": "function"
    },
    {
      "constant": false,
      "inputs": [
        {
          "internalType": "bool",
          "name": "mode",
          "type": "bool"
        }
      ],
      "name": "setContractRunState",
      "outputs": [],
      "payable": false,
      "stateMutability": "nonpayable",
      "type": "function"
    },
    {
      "constant": true,
      "inputs": [
        {
          "internalType": "address",
          "name": "account",
          "type": "address"
        }
      ],
      "name": "isContractAdmin",
      "outputs": [
        {
          "internalType": "bool",
          "name": "",
          "type": "bool"
        }
      ],
      "payable": false,
      "stateMutability": "view",
      "type": "function"
    },
    {
      "constant": false,
      "inputs": [
        {
          "internalType": "address",
          "name": "account",
          "type": "address"
        }
      ],
      "name": "addContractAdmin",
      "outputs": [],
      "payable": false,
      "stateMutability": "nonpayable",
      "type": "function"
    },
    {
      "constant": false,
      "inputs": [
        {
          "internalType": "address",
          "name": "account",
          "type": "address"
        }
      ],
      "name": "removeContractAdmin",
      "outputs": [],
      "payable": false,
      "stateMutability": "nonpayable",
      "type": "function"
    },
    {
      "constant": false,
      "inputs": [
        {
          "internalType": "address",
          "name": "account",
          "type": "address"
        }
      ],
      "name": "removeLastContractAdmin",
      "outputs": [],
      "payable": false,
      "stateMutability": "nonpayable",
      "type": "function"
    },
    {
      "constant": false,
      "inputs": [
        {
          "internalType": "bytes32",
          "name": "docId",
          "type": "bytes32"
        },
        {
          "internalType": "bytes32",
          "name": "label",
          "type": "bytes32"
        },
        {
          "internalType": "bytes32",
          "name": "digest",
          "type": "bytes32"
        },
        {
          "internalType": "uint8",
          "name": "hashFunction",
          "type": "uint8"
        },
        {
          "internalType": "uint8",
          "name": "digestLength",
          "type": "uint8"
        }
      ],
      "name": "addIpfsDocument",
      "outputs": [],
      "payable": false,
      "stateMutability": "nonpayable",
      "type": "function"
    },
    {
      "constant": true,
      "inputs": [
        {
          "internalType": "bytes32",
          "name": "id",
          "type": "bytes32"
        }
      ],
      "name": "getIpfsDocument",
      "outputs": [
        {
          "internalType": "bytes32",
          "name": "docId",
          "type": "bytes32"
        },
        {
          "internalType": "bytes32",
          "name": "label",
          "type": "bytes32"
        },
        {
          "internalType": "uint256",
          "name": "timestamp",
          "type": "uint256"
        },
        {
          "internalType": "address",
          "name": "owner",
          "type": "address"
        },
        {
          "internalType": "bytes32",
          "name": "docDigest",
          "type": "bytes32"
        },
        {
          "internalType": "uint8",
          "name": "docHashFunction",
          "type": "uint8"
        },
        {
          "internalType": "uint8",
          "name": "docDigestLength",
          "type": "uint8"
        }
      ],
      "payable": false,
      "stateMutability": "view",
      "type": "function"
    },
    {
      "constant": true,
      "inputs": [
        {
          "internalType": "address",
          "name": "account",
          "type": "address"
        }
      ],
      "name": "getIpfsDocumentsByOwner",
      "outputs": [
        {
          "internalType": "bytes32[]",
          "name": "",
          "type": "bytes32[]"
        }
      ],
      "payable": false,
      "stateMutability": "view",
      "type": "function"
    },
    {
      "constant": true,
      "inputs": [],
      "name": "getContractOwner",
      "outputs": [
        {
          "internalType": "address",
          "name": "",
          "type": "address"
        }
      ],
      "payable": false,
      "stateMutability": "view",
      "type": "function"
    },
    {
      "constant": false,
      "inputs": [
        {
          "internalType": "uint256",
          "name": "increment",
          "type": "uint256"
        }
      ],
      "name": "incrementCounter",
      "outputs": [],
      "payable": false,
      "stateMutability": "nonpayable",
      "type": "function"
    },
    {
      "constant": true,
      "inputs": [],
      "name": "getCounter",
      "outputs": [
        {
          "internalType": "uint256",
          "name": "",
          "type": "uint256"
        }
      ],
      "payable": false,
      "stateMutability": "view",
      "type": "function"
    }
  ],
  "bytecode": "0x60806040526001600060146101000a81548160ff02191690831515021790555060018055600060045534801561003457600080fd5b50336000806101000a81548173ffffffffffffffffffffffffffffffffffffffff021916908373ffffffffffffffffffffffffffffffffffffffff1602179055506001600260003373ffffffffffffffffffffffffffffffffffffffff1673ffffffffffffffffffffffffffffffffffffffff168152602001908152602001600020819055506116ee806100c96000396000f3fe608060405234801561001057600080fd5b50600436106100f55760003560e01c80636a608d3a11610097578063a901322911610066578063a90132291461043d578063b134be1314610481578063dda32e8b146104e3578063fc81a12a14610513576100f5565b80636a608d3a1461038b5780636abbb3b4146103ad5780638ada066e146103db578063a417a564146103f9576100f5565b80633b576728116100d35780633b5767281461020d5780634168af97146102b1578063442890d5146102fd5780634743909e14610347576100f5565b80631ddf7617146100fa5780631e8ef674146101185780633744164e14610174575b600080fd5b61010261056f565b6040518082815260200191505060405180910390f35b610172600480360360a081101561012e57600080fd5b81019080803590602001909291908035906020019092919080359060200190929190803560ff169060200190929190803560ff169060200190929190505050610575565b005b6101b66004803603602081101561018a57600080fd5b81019080803573ffffffffffffffffffffffffffffffffffffffff169060200190929190505050610a2e565b6040518080602001828103825283818151815260200191508051906020019060200280838360005b838110156101f95780820151818401526020810190506101de565b505050509050019250505060405180910390f35b6102396004803603602081101561022357600080fd5b8101908080359060200190929190505050610b68565b604051808881526020018781526020018681526020018573ffffffffffffffffffffffffffffffffffffffff1673ffffffffffffffffffffffffffffffffffffffff1681526020018481526020018360ff1660ff1681526020018260ff1660ff16815260200197505050505050505060405180910390f35b6102e7600480360360408110156102c757600080fd5b810190808035906020019092919080359060200190929190505050610cb0565b6040518082815260200191505060405180910390f35b610305610cde565b604051808273ffffffffffffffffffffffffffffffffffffffff1673ffffffffffffffffffffffffffffffffffffffff16815260200191505060405180910390f35b6103896004803603602081101561035d57600080fd5b81019080803573ffffffffffffffffffffffffffffffffffffffff169060200190929190505050610d07565b005b610393610f5c565b604051808215151515815260200191505060405180910390f35b6103d9600480360360208110156103c357600080fd5b8101908080359060200190929190505050610f72565b005b6103e3611012565b6040518082815260200191505060405180910390f35b61043b6004803603602081101561040f57600080fd5b81019080803573ffffffffffffffffffffffffffffffffffffffff16906020019092919050505061101c565b005b61047f6004803603602081101561045357600080fd5b81019080803573ffffffffffffffffffffffffffffffffffffffff16906020019092919050505061126f565b005b6104cd6004803603604081101561049757600080fd5b81019080803573ffffffffffffffffffffffffffffffffffffffff169060200190929190803590602001909291905050506114e4565b6040518082815260200191505060405180910390f35b610511600480360360208110156104f957600080fd5b81019080803515159060200190929190505050611512565b005b6105556004803603602081101561052957600080fd5b81019080803573ffffffffffffffffffffffffffffffffffffffff16906020019092919050505061158d565b604051808215151515815260200191505060405180910390f35b60045481565b61057e3361158d565b6105d3576040517f08c379a00000000000000000000000000000000000000000000000000000000081526004018080602001828103825260268152602001806116946026913960400191505060405180910390fd5b600060f81b856000602081106105e557fe5b1a60f81b7effffffffffffffffffffffffffffffffffffffffffffffffffffffffffffff1916141561067f576040517f08c379a000000000000000000000000000000000000000000000000000000000815260040180806020018281038252600d8152602001807f496e76616c696420646f6349640000000000000000000000000000000000000081525060200191505060405180910390fd5b600060f81b8360006020811061069157fe5b1a60f81b7effffffffffffffffffffffffffffffffffffffffffffffffffffffffffffff1916141561072b576040517f08c379a000000000000000000000000000000000000000000000000000000000815260040180806020018281038252601d8152602001807f496e76616c69642069706673446f6320666f6c6465722064696765737400000081525060200191505060405180910390fd5b60006003600087815260200190815260200160002060020154146107b7576040517f08c379a00000000000000000000000000000000000000000000000000000000081526004018080602001828103825260178152602001807f446f63756d656e7420616c72656164792065786973747300000000000000000081525060200191505060405180910390fd5b6040518060a001604052808681526020018581526020014281526020013373ffffffffffffffffffffffffffffffffffffffff16815260200160405180606001604052808681526020018560ff1681526020018460ff168152508152506003600087815260200190815260200160002060008201518160000155602082015181600101556040820151816002015560608201518160030160006101000a81548173ffffffffffffffffffffffffffffffffffffffff021916908373ffffffffffffffffffffffffffffffffffffffff1602179055506080820151816004016000820151816000015560208201518160010160006101000a81548160ff021916908360ff16021790555060408201518160010160016101000a81548160ff021916908360ff1602179055505050905050600660003373ffffffffffffffffffffffffffffffffffffffff1673ffffffffffffffffffffffffffffffffffffffff1681526020019081526020016000208590806001815401808255809150509060018203906000526020600020016000909192909190915055506032600560006004548152602001908152602001600020805490501415610983576004600081548092919060010191905055505b6005600060045481526020019081526020016000208590806001815401808255809150509060018203906000526020600020016000909192909190915055503373ffffffffffffffffffffffffffffffffffffffff16857fdfe40412e0f68c74fdc08b6496ad2c0cdd238105ffb6b458803aacc8430aa66660036000898152602001908152602001600020600201546040518082815260200191505060405180910390a35050505050565b6060600073ffffffffffffffffffffffffffffffffffffffff168273ffffffffffffffffffffffffffffffffffffffff161415610ad3576040517f08c379a000000000000000000000000000000000000000000000000000000000815260040180806020018281038252600f8152602001807f496e76616c6964206163636f756e74000000000000000000000000000000000081525060200191505060405180910390fd5b600660008373ffffffffffffffffffffffffffffffffffffffff1673ffffffffffffffffffffffffffffffffffffffff168152602001908152602001600020805480602002602001604051908101604052809291908181526020018280548015610b5c57602002820191906000526020600020905b815481526020019060010190808311610b48575b50505050509050919050565b6000806000806000806000610b7b6115f5565b600360008a81526020019081526020016000206040518060a00160405290816000820154815260200160018201548152602001600282015481526020016003820160009054906101000a900473ffffffffffffffffffffffffffffffffffffffff1673ffffffffffffffffffffffffffffffffffffffff1673ffffffffffffffffffffffffffffffffffffffff16815260200160048201604051806060016040529081600082015481526020016001820160009054906101000a900460ff1660ff1660ff1681526020016001820160019054906101000a900460ff1660ff1660ff16815250508152505090508060000151975080602001519650806040015195508060600151945080608001516000015193508060800151602001519250806080015160400151915050919395979092949650565b60056020528160005260406000208181548110610cc957fe5b90600052602060002001600091509150505481565b60008060009054906101000a900473ffffffffffffffffffffffffffffffffffffffff16905090565b600060149054906101000a900460ff16610d89576040517f08c379a00000000000000000000000000000000000000000000000000000000081526004018080602001828103825260208152602001807f436f6e74726163742069732063757272656e746c79206e6f742061637469766581525060200191505060405180910390fd5b610d923361158d565b610de7576040517f08c379a00000000000000000000000000000000000000000000000000000000081526004018080602001828103825260268152602001806116946026913960400191505060405180910390fd5b600073ffffffffffffffffffffffffffffffffffffffff168173ffffffffffffffffffffffffffffffffffffffff161415610e8a576040517f08c379a000000000000000000000000000000000000000000000000000000000815260040180806020018281038252600f8152602001807f496e76616c69642061646472657373000000000000000000000000000000000081525060200191505060405180910390fd5b60026001541015610f03576040517f08c379a00000000000000000000000000000000000000000000000000000000081526004018080602001828103825260188152602001807f43616e6e6f742072656d6f7665206c6173742061646d696e000000000000000081525060200191505060405180910390fd5b600260008273ffffffffffffffffffffffffffffffffffffffff1673ffffffffffffffffffffffffffffffffffffffff168152602001908152602001600020600090556001600081548092919060019003919050555050565b60008060149054906101000a900460ff16905090565b600081118015610f825750600a81105b610ff4576040517f08c379a00000000000000000000000000000000000000000000000000000000081526004018080602001828103825260178152602001807f496e76616c696420696e6372656d656e742076616c756500000000000000000081525060200191505060405180910390fd5b611009816007546115d990919063ffffffff16565b60078190555050565b6000600754905090565b600060149054906101000a900460ff1661109e576040517f08c379a00000000000000000000000000000000000000000000000000000000081526004018080602001828103825260208152602001807f436f6e74726163742069732063757272656e746c79206e6f742061637469766581525060200191505060405180910390fd5b6110a73361158d565b6110fc576040517f08c379a00000000000000000000000000000000000000000000000000000000081526004018080602001828103825260268152602001806116946026913960400191505060405180910390fd5b600073ffffffffffffffffffffffffffffffffffffffff168173ffffffffffffffffffffffffffffffffffffffff16141561119f576040517f08c379a000000000000000000000000000000000000000000000000000000000815260040180806020018281038252600f8152602001807f496e76616c69642061646472657373000000000000000000000000000000000081525060200191505060405180910390fd5b6001805414611216576040517f08c379a00000000000000000000000000000000000000000000000000000000081526004018080602001828103825260128152602001807f4e6f7420746865206c6173742061646d696e000000000000000000000000000081525060200191505060405180910390fd5b600260008273ffffffffffffffffffffffffffffffffffffffff1673ffffffffffffffffffffffffffffffffffffffff168152602001908152602001600020600090556001600081548092919060019003919050555050565b600060149054906101000a900460ff166112f1576040517f08c379a00000000000000000000000000000000000000000000000000000000081526004018080602001828103825260208152602001807f436f6e74726163742069732063757272656e746c79206e6f742061637469766581525060200191505060405180910390fd5b6112fa3361158d565b61134f576040517f08c379a00000000000000000000000000000000000000000000000000000000081526004018080602001828103825260268152602001806116946026913960400191505060405180910390fd5b600073ffffffffffffffffffffffffffffffffffffffff168173ffffffffffffffffffffffffffffffffffffffff1614156113f2576040517f08c379a000000000000000000000000000000000000000000000000000000000815260040180806020018281038252600f8152602001807f496e76616c69642061646472657373000000000000000000000000000000000081525060200191505060405180910390fd5b6001600260008373ffffffffffffffffffffffffffffffffffffffff1673ffffffffffffffffffffffffffffffffffffffff168152602001908152602001600020541061148a576040517f08c379a00000000000000000000000000000000000000000000000000000000081526004018080602001828103825260238152602001806116716023913960400191505060405180910390fd5b6001600260008373ffffffffffffffffffffffffffffffffffffffff1673ffffffffffffffffffffffffffffffffffffffff1681526020019081526020016000208190555060016000815480929190600101919050555050565b600660205281600052604060002081815481106114fd57fe5b90600052602060002001600091509150505481565b61151b3361158d565b611570576040517f08c379a00000000000000000000000000000000000000000000000000000000081526004018080602001828103825260268152602001806116946026913960400191505060405180910390fd5b80600060146101000a81548160ff02191690831515021790555050565b60006001600260008473ffffffffffffffffffffffffffffffffffffffff1673ffffffffffffffffffffffffffffffffffffffff16815260200190815260200160002054149050919050565b6000808284019050838110156115eb57fe5b8091505092915050565b6040518060a00160405280600080191681526020016000801916815260200160008152602001600073ffffffffffffffffffffffffffffffffffffffff168152602001611640611646565b81525090565b604051806060016040528060008019168152602001600060ff168152602001600060ff168152509056fe4163636f756e7420697320616c726561647920616e2061646d696e6973747261746f7243616c6c6572206973206e6f74206120636f6e74726163742061646d696e6973747261746f72a265627a7a7231582068ce5bcbb10fe699ec876f2fee04892d303fe651201250a96edf15e033a4b82c64736f6c63430005110032",
  "source": "pragma solidity  >=0.5.0;\n\nimport \"./interfaces/IDappState.sol\";\nimport \"./DappLib.sol\";\n\n\n/********************************************************************************************/\n/* This contract is auto-generated based on your choices in DappStarter. You can make       */\n/* changes, but be aware that generating a new DappStarter project will require you to      */\n/* merge changes. One approach you can take is to make changes in Dapp.sol and have it      */\n/* call into this one. You can maintain all your data in this contract and your app logic   */\n/* in Dapp.sol. This lets you update and deploy Dapp.sol with revised code and still        */\n/* continue using this one.                                                                 */\n/********************************************************************************************/\n\ncontract DappState is IDappState {\n    // Allow DappLib(SafeMath) functions to be called for all uint256 types\n    // (similar to \"prototype\" in Javascript)\n    using DappLib for uint256; \n\n/*>>>>>>>>>>>>>>>>>>>>>>>>>>>>>>>>>>> FILE STORAGE: IPFS  <<<<<<<<<<<<<<<<<<<<<<<<<<<<<<<<<<*/\n    using DappLib for DappLib.Multihash;\n\n\n/*@@@@@@@@@@@@@@@@@@@@@@@@@@@@@@@@@@@@@@@@@@@@@@@@@@@@@@@@@@@@@@@@@@@@@@@@@@@@@@@@@@@@@@@@@@*/\n/*@@@@@@@@@@@@@@@@@@@@@@@@@@@@@@@@@@@@@@@@ S T A T E @@@@@@@@@@@@@@@@@@@@@@@@@@@@@@@@@@@@@@@*/\n/*@@@@@@@@@@@@@@@@@@@@@@@@@@@@@@@@@@@@@@@@@@@@@@@@@@@@@@@@@@@@@@@@@@@@@@@@@@@@@@@@@@@@@@@@@@*/\n\n    // Account used to deploy contract\n    address private contractOwner;                  \n\n/*>>>>>>>>>>>>>>>>>>>>>>>>>>> ACCESS CONTROL: CONTRACT RUN STATE  <<<<<<<<<<<<<<<<<<<<<<<<<<*/\n    // Contract run state\n    bool private contractRunState = true;          \n\n/*>>>>>>>>>>>>>>>>>>>>>>>>>>> ACCESS CONTROL: ADMINISTRATOR ROLE  <<<<<<<<<<<<<<<<<<<<<<<<<<*/\n    // Track authorized admins count to prevent lockout\n    uint256 private authorizedAdminsCount = 1;                      \n\n    // Admins authorized to manage contract\n    mapping(address => uint256) private authorizedAdmins;                      \n\n/*>>>>>>>>>>>>>>>>>>>>>>>>>>>>>>>>>>> FILE STORAGE: IPFS  <<<<<<<<<<<<<<<<<<<<<<<<<<<<<<<<<<*/\n    struct IpfsDocument {\n        // Unique identifier -- defaults to multihash digest of file\n        bytes32 docId;    \n\n        bytes32 label;\n\n        // Registration timestamp                                          \n        uint256 timestamp;  \n\n        // Owner of document                                        \n        address owner;    \n\n        // External Document reference                                          \n        DappLib.Multihash docRef;                                   \n    }\n\n    // All added documents\n    mapping(bytes32 => IpfsDocument) ipfsDocs;                            \n\n    uint constant IPFS_DOCS_PAGE_SIZE = 50;\n    uint256 public ipfsLastPage = 0;\n\n    // All documents organized by page\n    mapping(uint256 => bytes32[]) public ipfsDocsByPage;         \n\n    // All documents for which an account is the owner\n    mapping(address => bytes32[]) public ipfsDocsByOwner;              \n\n\n/*@@@@@@@@@@@@@@@@@@@@@@@@@@@@@@@@@@@@@@@@@@@@@@@@@@@@@@@@@@@@@@@@@@@@@@@@@@@@@@@@@@@@@@@@@@*/\n/*@@@@@@@@@@@@@@@@@@@@@@@@@@@@@@@@@@ C O N S T R U C T O R @@@@@@@@@@@@@@@@@@@@@@@@@@@@@@@@@*/\n/*@@@@@@@@@@@@@@@@@@@@@@@@@@@@@@@@@@@@@@@@@@@@@@@@@@@@@@@@@@@@@@@@@@@@@@@@@@@@@@@@@@@@@@@@@@*/\n\n    constructor() public \n    {\n        contractOwner = msg.sender;       \n\n/*>>>>>>>>>>>>>>>>>>>>>>>>>>> ACCESS CONTROL: ADMINISTRATOR ROLE  <<<<<<<<<<<<<<<<<<<<<<<<<<*/\n        // Add account that deployed contract as an authorized admin\n        authorizedAdmins[msg.sender] = 1;       \n\n    }\n\n/*@@@@@@@@@@@@@@@@@@@@@@@@@@@@@@@@@@@@@@@@@@@@@@@@@@@@@@@@@@@@@@@@@@@@@@@@@@@@@@@@@@@@@@@@@@*/\n/*@@@@@@@@@@@@@@@@@@@@@@@@@@@@@@@@@@@@@@@ E V E N T S @@@@@@@@@@@@@@@@@@@@@@@@@@@@@@@@@@@@@@*/\n/*@@@@@@@@@@@@@@@@@@@@@@@@@@@@@@@@@@@@@@@@@@@@@@@@@@@@@@@@@@@@@@@@@@@@@@@@@@@@@@@@@@@@@@@@@@*/\n\n\n/*>>>>>>>>>>>>>>>>>>>>>>>>>>>>>>>>>>> FILE STORAGE: IPFS  <<<<<<<<<<<<<<<<<<<<<<<<<<<<<<<<<<*/\n    // Event fired when doc is added\n    event AddIpfsDocument      \n                    (\n                        bytes32 indexed docId,\n                        address indexed owner,\n                        uint256 timestamp\n                    );\n\n\n/*@@@@@@@@@@@@@@@@@@@@@@@@@@@@@@@@@@@@@@@@@@@@@@@@@@@@@@@@@@@@@@@@@@@@@@@@@@@@@@@@@@@@@@@@@@*/\n/*@@@@@@@@@@@@@@@@@@@@@@@@@@@@@@@@@@@@ M O D I F I E R S @@@@@@@@@@@@@@@@@@@@@@@@@@@@@@@@@@@*/\n/*@@@@@@@@@@@@@@@@@@@@@@@@@@@@@@@@@@@@@@@@@@@@@@@@@@@@@@@@@@@@@@@@@@@@@@@@@@@@@@@@@@@@@@@@@@*/\n\n\n/*>>>>>>>>>>>>>>>>>>>>>>>>>>> ACCESS CONTROL: CONTRACT RUN STATE  <<<<<<<<<<<<<<<<<<<<<<<<<<*/\n    /**\n    * @dev Modifier that requires the \"contractRunState\" boolean variable to be \"true\"\n    *      This is used on all state changing functions to pause the contract in \n    *      the event there is an issue that needs to be fixed\n    */\n    modifier requireContractRunStateActive() \n    {\n        require(contractRunState, \"Contract is currently not active\");\n        // Modifiers require an \"_\" which indicates where the function body will be added\n        _; \n    }\n\n/*>>>>>>>>>>>>>>>>>>>>>>>>>>> ACCESS CONTROL: ADMINISTRATOR ROLE  <<<<<<<<<<<<<<<<<<<<<<<<<<*/\n    /**\n    * @dev Modifier that requires the function caller to be a contract admin\n    */\n    modifier requireContractAdmin()\n    {\n        require(isContractAdmin(msg.sender), \"Caller is not a contract administrator\");\n        // Modifiers require an \"_\" which indicates where the function body will be added\n        _;\n    }\n\n\n/*@@@@@@@@@@@@@@@@@@@@@@@@@@@@@@@@@@@@@@@@@@@@@@@@@@@@@@@@@@@@@@@@@@@@@@@@@@@@@@@@@@@@@@@@@@*/\n/*@@@@@@@@@@@@@@@@@@@@@@@@@@@@@@@@@@@@@@ F U N C T I O N S @@@@@@@@@@@@@@@@@@@@@@@@@@@@@@@@@*/\n/*@@@@@@@@@@@@@@@@@@@@@@@@@@@@@@@@@@@@@@@@@@@@@@@@@@@@@@@@@@@@@@@@@@@@@@@@@@@@@@@@@@@@@@@@@@*/\n\n\n/*>>>>>>>>>>>>>>>>>>>>>>>>>>> ACCESS CONTROL: CONTRACT RUN STATE  <<<<<<<<<<<<<<<<<<<<<<<<<<*/\n    /**\n    * @dev Get active status of contract\n    *\n    * @return A bool that is the current active status\n    */    \n    function isContractRunStateActive()\n                        external \n                        view \n                        returns(bool)\n    {\n        return contractRunState;\n    }\n\n    /**\n    * @dev Sets contract active status on/off\n    *\n    * When active status is off, all write transactions except for this one will fail\n    */    \n    function setContractRunState\n                    (\n                        bool mode\n                    ) \n                    external \n                    // **** WARNING: Adding requireContractRunStateActive modifier will result in contract lockout ****\n                    requireContractAdmin  // Administrator Role block is required to ensure only authorized individuals can pause contract\n    {\n        contractRunState = mode;\n    }\n                        \n\n/*>>>>>>>>>>>>>>>>>>>>>>>>>>> ACCESS CONTROL: ADMINISTRATOR ROLE  <<<<<<<<<<<<<<<<<<<<<<<<<<*/\n    /**\n    * @dev Checks if an account is an admin\n    *\n    * @param account Address of the account to check\n    */\n    function isContractAdmin\n                            (\n                                address account\n                            ) \n                            public \n                            view\n                            returns(bool) \n    {\n        return authorizedAdmins[account] == 1;\n    }\n\n\n    /**\n    * @dev Adds a contract admin\n    *\n    * @param account Address of the admin to add\n    */\n    function addContractAdmin\n                            (\n                                address account\n                            ) \n                            external \n                            requireContractRunStateActive \n                            requireContractAdmin\n    {\n        require(account != address(0), \"Invalid address\");\n        require(authorizedAdmins[account] < 1, \"Account is already an administrator\");\n\n        authorizedAdmins[account] = 1;\n        authorizedAdminsCount++;\n    }\n\n    /**\n    * @dev Removes a previously added admin\n    *\n    * @param account Address of the admin to remove\n    */\n    function removeContractAdmin\n                            (\n                                address account\n                            ) \n                            external \n                            requireContractRunStateActive\n                            requireContractAdmin\n    {\n        require(account != address(0), \"Invalid address\");\n        require(authorizedAdminsCount >= 2, \"Cannot remove last admin\");\n\n        delete authorizedAdmins[account];\n        authorizedAdminsCount--;\n    }\n\n    /**\n    * @dev Removes the last admin fully decentralizing the contract\n    *\n    * @param account Address of the admin to remove\n    */\n    function removeLastContractAdmin\n                            (\n                                address account\n                            ) \n                            external \n                            requireContractRunStateActive\n                            requireContractAdmin\n    {\n        require(account != address(0), \"Invalid address\");\n        require(authorizedAdminsCount == 1, \"Not the last admin\");\n\n        delete authorizedAdmins[account];\n        authorizedAdminsCount--;\n    }\n\n\n/*>>>>>>>>>>>>>>>>>>>>>>>>>>>>>>>>>>> FILE STORAGE: IPFS  <<<<<<<<<<<<<<<<<<<<<<<<<<<<<<<<<<*/\n    /**\n    * @dev Adds a new IPFS doc\n    *\n    * @param docId Unique identifier (multihash digest of doc audio)\n    * @param label Short, descriptive label for document\n    * @param digest Digest of folder with doc binary and metadata\n    * @param hashFunction Function used for generating doc folder hash\n    * @param digestLength Length of doc folder hash\n    */\n    function addIpfsDocument\n                        (\n                            bytes32 docId,\n                            bytes32 label,\n                            bytes32 digest,\n                            uint8 hashFunction,\n                            uint8 digestLength\n                        ) \n                        external \n                           requireContractAdmin\n    {\n        // Prevent empty string for docId\n        require(docId[0] != 0, \"Invalid docId\");  \n\n        // Prevent empty string for digest                             \n        require(digest[0] != 0, \"Invalid ipfsDoc folder digest\");            \n\n        // Prevent duplicate docIds   \n        require(ipfsDocs[docId].timestamp == 0, \"Document already exists\");     \n\n        ipfsDocs[docId] = IpfsDocument({\n                                    docId: docId,\n                                    label: label,\n                                    timestamp: now,\n                                    owner: msg.sender,\n                                    docRef: DappLib.Multihash({\n                                                    digest: digest,\n                                                    hashFunction: hashFunction,\n                                                    digestLength: digestLength\n                                                })\n                               });\n\n        ipfsDocsByOwner[msg.sender].push(docId);\n        if (ipfsDocsByPage[ipfsLastPage].length == IPFS_DOCS_PAGE_SIZE) {\n            ipfsLastPage++;\n        }\n        ipfsDocsByPage[ipfsLastPage].push(docId);\n\n        emit AddIpfsDocument(docId, msg.sender, ipfsDocs[docId].timestamp);\n    }\n\n    /**\n    * @dev Gets individual IPFS doc by docId\n    *\n    * @param id DocumentId of doc\n    */\n    function getIpfsDocument\n                    (\n                        bytes32 id\n                    )\n                    external\n                    view\n                    returns(\n                                bytes32 docId, \n                                bytes32 label,\n                                uint256 timestamp, \n                                address owner, \n                                bytes32 docDigest,\n                                uint8 docHashFunction,\n                                uint8 docDigestLength\n                    )\n    {\n        IpfsDocument memory ipfsDoc = ipfsDocs[id];\n        docId = ipfsDoc.docId;\n        label = ipfsDoc.label;\n        timestamp = ipfsDoc.timestamp;\n        owner = ipfsDoc.owner;\n        docDigest = ipfsDoc.docRef.digest;\n        docHashFunction = ipfsDoc.docRef.hashFunction;\n        docDigestLength = ipfsDoc.docRef.digestLength;\n\n    }\n\n    /**\n    * @dev Gets docs where account is/was an owner\n    *\n    * @param account Address of owner\n    */\n    function getIpfsDocumentsByOwner\n                            (\n                                address account\n                            )\n                            external\n                            view\n                            returns(bytes32[] memory)\n    {\n        require(account != address(0), \"Invalid account\");\n\n        return ipfsDocsByOwner[account];\n    }\n\n\n//  Example functions that demonstrate how to call into this contract that holds state from\n//  another contract. Look in ~/interfaces/IDappState.sol for the interface definitions and\n//  in Dapp.sol for the actual calls into this contract.\n\n    /**\n    * @dev This is an EXAMPLE function that illustrates how functions in this contract can be\n    *      called securely from another contract to READ state data. Using the Contract Access \n    *      block will enable you to make your contract more secure by restricting which external\n    *      contracts can call functions in this contract.\n    */\n    function getContractOwner()\n                                external\n                                view\n                                returns(address)\n    {\n        return contractOwner;\n    }\n\n    uint256 counter;    // This is an example variable used only to demonstrate calling\n                        // a function that writes state from an external contract. It and\n                        // \"incrementCounter\" and \"getCounter\" functions can (should?) be deleted.\n    /**\n    * @dev This is an EXAMPLE function that illustrates how functions in this contract can be\n    *      called securely from another contract to WRITE state data. Using the Contract Access \n    *      block will enable you to make your contract more secure by restricting which external\n    *       contracts can call functions in this contract.\n    */\n    function incrementCounter\n                            (\n                                uint256 increment\n                            )\n                            external\n                            // Enable the modifier below if using the Contract Access feature\n                            // requireContractAuthorized\n    {\n        // NOTE: If another contract is calling this function, then msg.sender will be the address\n        //       of the calling contract and NOT the address of the user who initiated the\n        //       transaction. It is possible to get the address of the user, but this is \n        //       spoofable and therefore not recommended.\n        \n        require(increment > 0 && increment < 10, \"Invalid increment value\");\n        counter = counter.add(increment);   // Demonstration of using SafeMath to add to a number\n                                            // While verbose, using SafeMath everywhere that you\n                                            // add/sub/div/mul will ensure your contract does not\n                                            // have weird overflow bugs.\n    }\n\n    /**\n    * @dev This is an another EXAMPLE function that illustrates how functions in this contract can be\n    *      called securely from another contract to READ state data. Using the Contract Access \n    *      block will enable you to make your contract more secure by restricting which external\n    *      contracts can call functions in this contract.\n    */\n    function getCounter()\n                                external\n                                view\n                                returns(uint256)\n    {\n        return counter;\n    }\n\n}   \n\n\n",
  "sourcePath": "/home/user/Downloads/sweet-hicocra/contracts/DappState.sol",
  "compiler": {
    "name": "solc",
    "version": "0.5.17+commit.d19bba13.Emscripten.clang"
  },
  "schemaVersion": "3.4.0",
  "updatedAt": "2021-04-26T11:43:08.557Z",
  "networkType": "ethereum",
  "devdoc": {
    "methods": {
      "addContractAdmin(address)": {
        "details": "Adds a contract admin",
        "params": {
          "account": "Address of the admin to add"
        }
      },
      "addIpfsDocument(bytes32,bytes32,bytes32,uint8,uint8)": {
        "details": "Adds a new IPFS doc",
        "params": {
          "digest": "Digest of folder with doc binary and metadata",
          "digestLength": "Length of doc folder hash",
          "docId": "Unique identifier (multihash digest of doc audio)",
          "hashFunction": "Function used for generating doc folder hash",
          "label": "Short, descriptive label for document"
        }
      },
      "getContractOwner()": {
        "details": "This is an EXAMPLE function that illustrates how functions in this contract can be     called securely from another contract to READ state data. Using the Contract Access      block will enable you to make your contract more secure by restricting which external     contracts can call functions in this contract."
      },
      "getCounter()": {
        "details": "This is an another EXAMPLE function that illustrates how functions in this contract can be     called securely from another contract to READ state data. Using the Contract Access      block will enable you to make your contract more secure by restricting which external     contracts can call functions in this contract."
      },
      "getIpfsDocument(bytes32)": {
        "details": "Gets individual IPFS doc by docId",
        "params": {
          "id": "DocumentId of doc"
        }
      },
      "getIpfsDocumentsByOwner(address)": {
        "details": "Gets docs where account is/was an owner",
        "params": {
          "account": "Address of owner"
        }
      },
      "incrementCounter(uint256)": {
        "details": "This is an EXAMPLE function that illustrates how functions in this contract can be     called securely from another contract to WRITE state data. Using the Contract Access      block will enable you to make your contract more secure by restricting which external      contracts can call functions in this contract."
      },
      "isContractAdmin(address)": {
        "details": "Checks if an account is an admin",
        "params": {
          "account": "Address of the account to check"
        }
      },
      "isContractRunStateActive()": {
        "details": "Get active status of contract",
        "return": "A bool that is the current active status"
      },
      "removeContractAdmin(address)": {
        "details": "Removes a previously added admin",
        "params": {
          "account": "Address of the admin to remove"
        }
      },
      "removeLastContractAdmin(address)": {
        "details": "Removes the last admin fully decentralizing the contract",
        "params": {
          "account": "Address of the admin to remove"
        }
      },
      "setContractRunState(bool)": {
        "details": "Sets contract active status on/off    * When active status is off, all write transactions except for this one will fail"
      }
    }
  },
  "userdoc": {
    "methods": {},
    "notice": "*****************************************************************************************"
  }
}